:020000040800F2
:10000000005000207D180008FB010008FD010008D9
:10001000FF010008010200080302000800000000C0
:1000200000000000000000000000000005020008C1
:100030000702000800000000090200080B02000887
:10004000C5180008C5180008C5180008C51800081C
:10005000C5180008C5180008C5180008C51800080C
:10006000C5180008C5180008C5180008C5180008FC
:10007000C5180008C5180008C5180008C5180008EC
:10008000C5180008C5180008C5180008C5180008DC
:10009000C5180008C5180008C5180008C5180008CC
:1000A000C5180008C5180008C5180008C5180008BC
:1000B000C5180008C5180008C5180008C5180008AC
:1000C000C5180008C5180008C5180008C51800089C
:1000D000C5180008C5180008C5180008C51800088C
:1000E000C5180008C5180008C51800080000000061
:1000F0000000000000000000000000000000000000
:0C01000000000000000000005FF808F1A3
:10010C0010B5054C237833B9044B13B10448AFF345
:10011C0000800123237010BD0C00002000000000A3
:10012C002019000808B5034B1BB103490348AFF372
:10013C00008008BD000000001000002020190008FD
:10014C0084B0134B9A6942F010029A619A6902F0DA
:10015C0010020092009A9A6942F020029A619A6900
:10016C0002F020020192019A9A6942F004029A610B
:10017C009A6902F004020292029A9A6942F0080209
:10018C009A619B6903F008030393039B04B07047C7
:10019C000010024010B590B02422002107A801F0F5
:1001AC00B1FB00240194029403940494059402235B
:1001BC00069301230A9310230B9306A800F028FA48
:1001CC000F2301930294039404940594214601A8EF
:1001DC0000F044FC10B010BD08B500F0CBF9FFF7EF
:1001EC00D9FFFFF7ADFF01F033F9FEE77047704719
:1001FC00FEE7FEE7FEE7FEE770477047704708B57D
:10020C0000F0CAF908BD000082B00E4B9A6942F0AA
:10021C0001029A619A6902F001020092009ADA696D
:10022C0042F08052DA61DB6903F080530193019B49
:10023C00054A536823F0E06343F00073536002B047
:10024C00704700BF00100240000001402DE9F04152
:10025C000646884617461D463BE02DB100F0A8F92E
:10026C00069BC01AA84234D33268536823F0E003CB
:10027C0053607368B3F5827F0BD0B36AB3F5005F3C
:10028C0014D0012386F85130002386F85030032017
:10029C0027E0B368B3F5004F02D0B3F5806FECD113
:1002AC003268136823F040031360E6E73268136882
:1002BC0023F400531B041B0C13603268136843F4C3
:1002CC0000531360DDE70124BC4209D0B5F1FF3FB8
:1002DC00C3D13468A46838EA0403F4D00024F3E7EB
:1002EC000020BDE8F08110B582B004460B460092A8
:1002FC0000228021FFF7AAFF08B902B010BD636D80
:10030C0043F0200363650320F7E700283BD010B5CA
:10031C0004460023836290F85130002B2ED0022328
:10032C0084F851302268136823F04003136063682B
:10033C00A2681343E26813432269134362691343AF
:10034C00A26902F400721343E2691343226A134355
:10035C00A16A22680B431360638B03F00403616A88
:10036C0022680B4353602268D36923F40063D36182
:10037C0000206065012384F8513010BD80F85030A6
:10038C0001F02AFACBE7012070472DE9F04385B044
:10039C001D4690F85030012B00F0C48004460E46E8
:1003AC009146012380F8503000F002F9804694F811
:1003BC005170FFB2012F40F0AA80002E00F0A880EF
:1003CC00B9F1000F00F0A480032384F8513000230E
:1003DC0063652663A4F83490A4F83690A363A387CE
:1003EC00E38763642364A368B3F5004F1CD02368D0
:1003FC001A6812F0400F03D11A6842F040021A60DA
:10040C00E368B3F5006F15D063681BB1E38E9BB244
:10041C00012B41D1236816F8012B1A73E38E9BB282
:10042C00013B9BB2E38637E02268136843F48043B8
:10043C001360DCE763681BB1E38E9BB2012B0DD11B
:10044C00236836F8022BDA60E38E9BB2013B9BB239
:10045C00E38603E0D5B1B5F1FF3F11D1E38E9BB23A
:10046C00002B32D023689A6812F0020FF2D036F8C3
:10047C00022BDA60E38E9BB2013B9BB2E386EDE785
:10048C0000F096F8A0EB0800A842E7D303273FE062
:10049C00CDB1B5F1FF3F10D1E28E92B2AAB1236873
:1004AC009A6812F0020FF3D016F8012B1A73E28E31
:1004BC0092B2013A92B2E286EEE700F079F8A0EB44
:1004CC000800A842E8D3032722E0CDF800802B4691
:1004DC00012202212046FFF7B9FE08B1032717E0DD
:1004EC00424629462046FFF7FEFE034660B9A26845
:1004FC0032B903922268D168039192680392039AED
:10050C00626D2AB91F4603E02023636500E00227D1
:10051C00012384F85130002384F85030384605B05C
:10052C00BDE8F0830227F9E710B504460E4B1878A6
:10053C004FF47A73B3FBF0F30C4A1068B0FBF3F092
:10054C0000F0B6FC68B90F2C01D901200AE000229A
:10055C0021464FF0FF3000F077FC054B1C6000206B
:10056C0000E0012010BD00BF0000002008000020AA
:10057C000400002008B5074A136843F01003136009
:10058C00032000F04FFC0020FFF7CEFFFFF73CFEEE
:10059C00002008BD00200240034A1168034B1B7861
:1005AC000B441360704700BF2C000020000000209B
:1005BC00014B1868704700BF2C00002038B504466A
:1005CC00FFF7F6FF0546B4F1FF3F02D0044B1B7852
:1005DC001C44FFF7EDFF401BA042FAD338BD00BF0F
:1005EC000000002082B0084B1B68084AA2FB0323C2
:1005FC005B0A00FB03F3019300BF019B5A1E01929F
:10060C00002BF9D102B0704708000020D34D6210C6
:10061C0070B582B00446036813F0010F2CD0AB4BBD
:10062C005B6803F00C03042B1DD0A84B5B6803F034
:10063C000C03082B12D06368B3F5803F41D0002B1C
:10064C0055D103F1804303F504331A6822F4803248
:10065C001A601A6822F480221A6037E09B4B5B68A0
:10066C0013F4803FE7D0994B1B6813F4003F03D081
:10067C006368002B00F0AE81236813F0020F75D075
:10068C00924B5B6813F00C0F5FD0904B5B6803F0E0
:10069C000C03082B54D02369002B00F089808C4B61
:1006AC0001221A60FFF784FF0546884B1B6813F084
:1006BC00020F74D1FFF77CFF401B0228F5D90320F1
:1006CC008DE1824A136843F480331360636843B34B
:1006DC00FFF76EFF05467D4B1B6813F4003FCBD133
:1006EC00FFF766FF401B6428F5D9032077E1B3F5CB
:1006FC00A02F09D0754B1A6822F480321A601A6840
:10070C0022F480221A60E1E703F18043A3F53C3325
:10071C001A6842F480221A601A6842F480321A6015
:10072C00D4E7FFF745FF0546684B1B6813F4003F01
:10073C00A2D0FFF73DFF401B6428F5D903204EE102
:10074C00624B5B6813F4803FA5D1604B1B6813F0C0
:10075C00020F03D02369012B40F03E815B4A1368E2
:10076C0023F0F803616943EAC1031360236813F0B3
:10077C00080F32D0A369002B45D0564B01221A60CA
:10078C00FFF716FF0546514B5B6A13F0020F21D1A0
:10079C00FFF70EFF401B0228F5D903201FE14B4A3F
:1007AC00136823F0F803616943EAC1031360DDE7C2
:1007BC00474B00221A60FFF7FBFE0546434B1B68B4
:1007CC0013F0020FD2D0FFF7F3FE401B0228F5D92D
:1007DC00032004E10120FFF705FF236813F0040F49
:1007EC0000F09880394BDB6913F0805F1DD1374BDB
:1007FC00DA6942F08052DA61DB6903F080530193CD
:10080C00019B012512E0334B00221A60FFF7D0FE4A
:10081C0005462E4B5B6A13F0020FDED0FFF7C8FEC5
:10082C00401B0228F5D90320D9E000252A4B1B6870
:10083C0013F4807F11D0E368012B22D0002B38D128
:10084C0003F1804303F504331A6A22F001021A62A1
:10085C001A6A22F004021A6218E01F4A136843F461
:10086C0080731360FFF7A4FE06461B4B1B6813F442
:10087C00807FE0D1FFF79CFE801B6428F5D9032014
:10088C00ADE0124A136A43F001031362E3687BB3D1
:10089C00FFF78EFE06460D4B1B6A13F0020F38D184
:1008AC00FFF786FE801B41F288339842F3D9032070
:1008BC0095E0052B12D0054B1A6A22F001021A6240
:1008CC001A6A22F004021A62E0E700BF001002402C
:1008DC00000042428004424200700040424B1A6ABF
:1008EC0042F004021A621A6A42F001021A62CDE75F
:1008FC00FFF75EFE06463C4B1B6A13F0020F08D056
:10090C00FFF756FE801B41F288339842F3D903203F
:10091C0065E0E5B9E369002B60D0334A526802F018
:10092C000C02082A5DD0022B17D0304B00221A6023
:10093C00FFF73EFE04462C4B1B6813F0007F47D09C
:10094C00FFF736FE001B0228F5D9032047E0264AA4
:10095C00D36923F08053D361DCE7244B00221A6067
:10096C00FFF726FE0546204B1B6813F0007F06D0D0
:10097C00FFF71EFE401B0228F5D903202FE0236A47
:10098C00B3F5803F1AD018494B6823F47413226ACC
:10099C00606A024313434B60144B01221A60FFF749
:1009AC0007FE0446104B1B6813F0007F0ED1FFF7B7
:1009BC00FFFD001B0228F5D9032010E00A4A5368FA
:1009CC0023F40033A1680B435360DCE7002006E0FE
:1009DC00002004E0012002E0012000E0002002B031
:1009EC0070BD0120FBE700BF0010024060004242D6
:1009FC0086B0164B0FCB0DF1180C0CE90F0040F222
:100A0C000123ADF80430124B5B6803F00C02082A8A
:100A1C0002D0104806B07047C3F38342624412F808
:100A2C00102C13F4803F0CD0094B5B68C3F340438C
:100A3C00634413F8143C074800FB02F0B0FBF3F0DE
:100A4C00E8E7054800FB02F0E4E700BF38190008AE
:100A5C000010024000127A0000093D0070B50446F7
:100A6C000D46614B1B6803F007038B420BD25E4AA9
:100A7C00136823F007030B431360136803F0070399
:100A8C008B4240F0AB80236813F0020F17D013F0A9
:100A9C00040F04D0554A536843F4E0635360236851
:100AAC0013F0080F04D0514A536843F46053536059
:100ABC004E4A536823F0F003A1680B43536023683C
:100ACC0013F0010F52D06368012B23D0022B28D0D6
:100ADC00464A126812F0020F00F0828043494A68BD
:100AEC0022F0030213434B60FFF762FD0646636876
:100AFC00012B1DD0022B2AD03C4B5B6813F00C0F42
:100B0C0034D0FFF755FD831B41F288329342F3D961
:100B1C00032062E0354A126812F4003FDED1012056
:100B2C005BE0324A126812F0007FD7D1012054E00A
:100B3C002E4B5B6803F00C03042B17D0FFF738FD2A
:100B4C00831B41F288329342F2D9032045E0274BB4
:100B5C005B6803F00C03082B08D0FFF729FD801B02
:100B6C0041F288339842F2D9032036E01E4B1B68C1
:100B7C0003F00703AB420AD91B4A136823F007039F
:100B8C002B431360136803F00703AB422AD123688D
:100B9C0013F0040F06D0154A536823F4E063E168A0
:100BAC000B435360236813F0080F07D00F4A5368A8
:100BBC0023F46053216943EAC1035360FFF718FF24
:100BCC000A4B5B68C3F30313094AD35CD840094B47
:100BDC0018600020FFF7A8FC002070BD0120FCE786
:100BEC000120FAE70120F8E7002002400010024043
:100BFC00941B000808000020F0B482B000252C469D
:100C0C00A3E07F4FBB4210D007D97E4FBB420CD024
:100C1C0007F58037BB4208D013E0A7F58017BB421D
:100C2C0003D007F57027BB4207D18B68002B58D037
:100C3C00012B51D04261082503E0A7F58017BB4278
:100C4C00F3D0FF2E4FD88446FF2E4FD8A200DCF8ED
:100C5C0000300F27974023EA070305FA02F21343EB
:100C6C00CCF800304B6813F0805F6DD0664B9A69FE
:100C7C0042F001029A619B6903F001030193019B0D
:100C8C00A208971C614B53F8273004F00307BF00F0
:100C9C004FF00F0C0CFA07FC23EA0C0C5C4B98423F
:100CAC002AD003F58063984200F08A8003F58063B4
:100CBC00984200F0878003F5806398421AD0042391
:100CCC001BE0CD68BDE7CD680435BAE7CD680835C3
:100CDC00B7E7CD680C35B4E702610825B1E700250C
:100CEC00AFE70425ADE700F1040CADE7A4F1080271
:100CFC009200ACE7032300E00023BB4043EA0C0363
:100D0C000232424F47F822304B6813F4803F5BD0DD
:100D1C00404A1368334313604B6813F4003F59D0B7
:100D2C003C4A5368334353604B6813F4801F57D0CD
:100D3C00384A9368334393604B6813F4001F55D0C3
:100D4C00344AD3681E43D66001340F2C54D8012288
:100D5C00A2400B6803EA020632EA0303F4D14B68A3
:100D6C00122B3FF64EAF122B3FF66BAF01A757F885
:100D7C0023F000BF370C0008CF0C0008D90C00087A
:100D8C00EB0C00084F0C00084F0C00084F0C00082F
:100D9C004F0C00084F0C00084F0C00084F0C0008BB
:100DAC004F0C00084F0C00084F0C00084F0C0008AB
:100DBC004F0C00084F0C0008D30C0008DF0C000887
:100DCC0001239AE7022398E7124A136823EA0603E1
:100DDC001360A1E70F4A536823EA06035360A3E7A5
:100DEC000C4A936823EA06039360A5E7094AD36883
:100DFC0023EA0606D660A7E702B0F0BC704700BF36
:100E0C0000002210000031100010024000000140D0
:100E1C0000080140000401400AB101617047090457
:100E2C0001617047074AD36823F4E0631B041B0C71
:100E3C00000200F4E060034343F0BF6343F400336B
:100E4C00D360704700ED00E030B4174BDB68C3F3A0
:100E5C000223C3F10704042C28BF04241D1D062DF6
:100E6C0018D9033B4FF0FF3505FA04F421EA0401CD
:100E7C00994005FA03F322EA0303194300280BDB1C
:100E8C000901C9B200F1604000F5614080F800131F
:100E9C0030BC70470023E5E700F00F000901C9B230
:100EAC00024B1954F4E700BF00ED00E014ED00E034
:100EBC000138B0F1807F0AD2064B5860064AF02107
:100ECC0082F823100020986007221A6070470120D6
:100EDC00704700BF10E000E000ED00E0F0B585B019
:100EEC0000250095019502950395214E2A46042173
:100EFC003046FFF791FF042300930127019702244A
:100F0C000294039469463046FFF776FE2A464FF466
:100F1C0080613046FFF780FF4FF4806300930197A8
:100F2C000294039469463046FFF766FE2A464FF456
:100F3C0000613046FFF770FF4FF400630093019798
:100F4C000294039469463046FFF756FEA6F5806678
:100F5C002A4610213046FFF75FFF102300930197BC
:100F6C000294039469463046FFF746FE05B0F0BD87
:100F7C00000C014000B583B08DF8070001231A4620
:100F8C000DF107010248FFF700FA03B05DF804FB0E
:100F9C003000002038B505460A4C002204212046BA
:100FAC00FFF73AFF00224FF400612046FFF734FFB1
:100FBC002846FFF7DFFF01224FF400612046FFF7C0
:100FCC002BFF38BD000C014038B505460A4C0122F8
:100FDC0004212046FFF720FF00224FF40061204639
:100FEC00FFF71AFF2846FFF7C5FF01224FF40061F7
:100FFC002046FFF711FF38BD000C0140F8B507463D
:10100C000D4616461C462A20FFF7C4FF380AFFF788
:10101C00DBFFF8B2FFF7D8FF300AFFF7D5FFF0B2CD
:10102C00FFF7D2FF2B20FFF7B5FF280AFFF7CCFF05
:10103C00E8B2FFF7C9FF200AFFF7C6FFE0B2FFF7DF
:10104C00C3FF2C20FFF7A6FFF8BD000010B5044627
:10105C003620FFF79FFF0120FFF7B0FA032C0DD8C5
:10106C00DFE804F0020D18234820FFF7ADFF144B06
:10107C00F0221A80134B4FF4A0721A8010BD282056
:10108C00FFF7A2FF0E4B4FF4A0721A800D4BF0220B
:10109C001A80F3E78820FFF797FF094BF0221A809C
:1010AC00084B4FF4A0721A80E8E7E820FFF78CFF9A
:1010BC00034B4FF4A0721A80024BF0221A80DDE72A
:1010CC002A000020280000202DE9F04700AF06463A
:1010DC000D464FEA4108B8F5FA7F01D34FF4FA7583
:1010EC001D4C012204212046FFF796FE00224FF4EE
:1010FC0000612046FFF790FE310AEB1D23F0070339
:10110C00ADEB030D6C460023AB4204D2E1545A1CE8
:10111C00A6540233F8E7B8FBF5F905FB198AA84584
:10112C000FD20A231FFA8AF221460C48FFF72DF939
:10113C0001224FF400610848FFF76EFEBD46BDE882
:10114C00F08700264E45ECD20A23AAB2214603486A
:10115C00FFF71BF90136F5E7000C014030000020C9
:10116C0070B50446074D084E2B883288002108467E
:10117C00FFF744FF3388298801FB03F12046FFF772
:10118C00A3FF70BD280000202A00002070B5154672
:10119C001C46114B1A8882421DD9104B1B888B425E
:1011AC0019D94619964201DD121A95B20A199A42BA
:1011BC0001DD5B1A9CB22A1892B263189BB2013BF8
:1011CC00013A9BB292B2FFF719FF05FB04F1BDF88F
:1011DC001000FFF779FF70BD2A00002028000020C6
:1011EC00594B1B88834240F2AE80F0B585B0044663
:1011FC000E461546554B1B888B4201D805B0F0BDE9
:10120C00534F002204213846FFF706FE00224FF40C
:10121C0000613846FFF700FE2A20FFF7ABFE0122E3
:10122C0004213846FFF7F8FD01224FF400613846DF
:10123C00FFF7F2FD00224FF400613846FFF7ECFD9A
:10124C00230A8DF80C30E3B28DF80D3001342412E2
:10125C008DF80E4001338DF80F303E4C01230422E3
:10126C0003A92046FFF791F801224FF4006138469C
:10127C00FFF7D2FD002204213846FFF7CDFD0022F6
:10128C004FF400613846FFF7C7FD2B20FFF772FEC5
:10129C00012204213846FFF7BFFD01224FF4006103
:1012AC003846FFF7B9FD00224FF400613846FFF7CE
:1012BC00B3FD330A8DF80830F3B28DF80930711C88
:1012CC0009128DF80A1001338DF80B30012304221A
:1012DC0002A92046FFF759F801224FF40061384665
:1012EC00FFF79AFD002204213846FFF795FD0022F6
:1012FC004FF400613846FFF78FFD2C20FFF73AFEC4
:10130C00012204213846FFF787FD01224FF40061CA
:10131C003846FFF781FD00224FF400613846FFF795
:10132C007BFD2B0A8DF804308DF805500123022229
:10133C0001A92046FFF729F801224FF40061384635
:10134C00FFF76AFD5AE770472A00002028000020AA
:10135C00000C0140300000202DE9F04385B0994687
:10136C00BDF830601F2801D92038C0B20023052BEE
:10137C000CD800EB4004254D05EB4404E55C04ACB3
:10138C001C4404F8085C0133DBB2F0E78FB21FFA9F
:10139C0082F8F3009BB206EB4602520092B2BDF803
:1013AC003410009141463846FFF7F0FE002526E048
:1013BC0005FB06F080B204FB06F189B241443844C7
:1013CC00CDF800903346324689B280B2FFF7DEFE8C
:1013DC000134E4B2072C10D804AB2B4413F8082CBE
:1013EC00224112F0010FF3D0012EE1D14A4608EB55
:1013FC0004017819FFF7F4FEEAE70135EDB2052D8B
:10140C0001D80024E6E705B0BDE8F08354190008C4
:10141C002DE9F04383B004460D4690461F46BDF8B7
:10142C002860BDF82C90207870B10134CDF8049070
:10143C0000963B4642462946FFF78EFF06EB4601D7
:10144C0005EB4101CDB2EEE703B0BDE8F08300003F
:10145C0070B582B0FFF742FD01221021CB48FFF797
:10146C00DBFCCB4C01224FF480612046FFF7D4FC0F
:10147C0000F092F900224FF400612046FFF7CCFCFB
:10148C0000224FF480612046FFF7C6FCC820FFF70E
:10149C0095F800224FF400612046FFF7BDFCC820F0
:1014AC00FFF78CF801224FF480612046FFF7B4FC63
:1014BC000120FFF76FFD4FF47A70FFF77FF8CB2018
:1014CC00FFF768FD3920FFF77FFD2C20FFF77CFD2F
:1014DC000020FFF779FD3420FFF776FD0220FFF79F
:1014EC0073FDCF20FFF756FD0020FFF76DFDC120E7
:1014FC00FFF76AFD3020FFF767FDE820FFF74AFD94
:10150C008520FFF761FD0020FFF75EFD7820FFF7D7
:10151C005BFDEA20FFF73EFD0020FFF755FD0020A4
:10152C00FFF752FDED20FFF735FD6420FFF74CFD72
:10153C000320FFF749FD1220FFF746FD8120FFF73E
:10154C0043FDF720FFF726FD2020FFF73DFDC020CF
:10155C00FFF720FD2320FFF737FDC120FFF71AFD11
:10156C001020FFF731FDC520FFF714FD3E20FFF7DB
:10157C002BFD2820FFF728FDC720FFF70BFD862049
:10158C00FFF722FD3620FFF705FD4820FFF71CFD75
:10159C003A20FFF7FFFC5520FFF716FDB120FFF7AF
:1015AC00F9FC0020FFF710FD1820FFF70DFDB62009
:1015BC00FFF7F0FC0820FFF707FD8220FFF704FD82
:1015CC002720FFF701FDF220FFF7E4FC0020FFF7D6
:1015DC00FBFC2620FFF7DEFC0120FFF7F5FCE020EA
:1015EC00FFF7D8FC0F20FFF7EFFC3120FFF7ECFCE6
:1015FC002B20FFF7E9FC0C20FFF7E6FC0E20FFF791
:10160C00E3FC0820FFF7E0FC4E20FFF7DDFCF120A7
:10161C00FFF7DAFC3720FFF7D7FC0720FFF7D4FCE5
:10162C001020FFF7D1FC0320FFF7CEFC0E20FFF7B4
:10163C00CBFC0920FFF7C8FC0020FFF7C5FCE1201C
:10164C00FFF7A8FC0020FFF7BFFC0E20FFF7BCFC47
:10165C001420FFF7B9FC0320FFF7B6FC1120FFF7AD
:10166C00B3FC0720FFF7B0FC3120FFF7ADFCC12025
:10167C00FFF7AAFC4820FFF7A7FC0820FFF7A4FC03
:10168C000F20FFF7A1FC0C20FFF79EFC3120FFF789
:10169C009BFC3620FFF798FC0F20FFF795FC1120E0
:1016AC00FFF778FC7820FEF789FF2920FFF772FC02
:1016BC000120FFF7CBFC4FF6FF70FFF751FD002424
:1016CC00009432231A460A210846FFF75FFD1F23B8
:1016DC00009332231A4646210846FFF757FD4FF474
:1016EC00FC63009332231A4646212046FFF74EFD39
:1016FC004FF47843009332231A4605215A20FFF702
:10170C0045FD4FF6E073009332231A466421C8203E
:10171C00FFF73CFD47F60F03009332231A4678215E
:10172C008220FFF733FD4FF61F0300930A231A465E
:10173C0019464FF49B70FFF729FD224601210846FC
:10174C00FFF74EFD224601210220FFF749FD2246FC
:10175C0002210120FFF744FD224602210846FFF733
:10176C003FFD4FF6FF7601960325009523460A228E
:10177C00C8215020FFF7F0FD0196009523461E224C
:10178C00A0210448FFF744FE02B070BD00080140E0
:10179C00000C01404C19000808B50D480D4B0360B6
:1017AC004FF48273436000238360C3600361436121
:1017BC004FF400728261C361036243628362072348
:1017CC00C362FEF7A2FD00B908BDFEF70FFDFBE7F3
:1017DC0030000020003001400268104B9A4200D0CB
:1017EC00704700B587B003F560439A6942F48052A4
:1017FC009A619B6903F480530193019BE02302934C
:10180C0002230393002304930323059302A90448A2
:10181C00FFF7F2F907B05DF804FB00BF00300140A0
:10182C00000801400F4B1A6842F001021A60596817
:10183C000D4A0A405A601A6822F0847222F48032EF
:10184C001A601A6822F480221A605A6822F4FE0286
:10185C005A604FF41F029A60044B4FF000629A607A
:10186C00704700BF001002400000FFF800ED00E0E0
:10187C00002103E00B4B5B58435004310A480B4BDF
:10188C0042189A42F6D30A4A02E0002342F8043B7B
:10189C00084B9A42F9D3FFF7C5FF00F00FF8FEF79B
:1018AC009BFC7047AC1B0008000000200C000020C3
:1018BC000C00002088000020FEE7000070B5002618
:1018CC000C4D0D4C641BA410A64209D100F022F85B
:1018DC0000260A4D0A4C641BA410A64205D170BD0B
:1018EC0055F8043B98470136EEE755F8043B98470A
:1018FC000136F2E7A41B0008A41B0008A41B000877
:10190C00A81B000803460244934200D1704703F819
:10191C00011BF9E7F8B500BFF8BC08BC9E46704740
:0C192C00F8B500BFF8BC08BC9E46704730
:1019380002030405060708090A0B0C0D0E0F101008
:10194800000000007068756F6E67000000000000FE
:1019580000005C0000000000060006000000287C73
:10196800287C28005C54FE5474004420100844006D
:10197800285454205000060000000000384400009D
:1019880000004438000000000207020000001010A8
:101998007C101000C0000000000010101010100093
:1019A80040000000000060100C0000007C64544CF3
:1019B8007C00487C4000000064545454480044545F
:1019C80054546C003C20702020005C545454240073
:1019D8007C5454547400040464140C007C5454540F
:1019E8007C005C5454547C00440000000000C40097
:1019F800000000001028440000002828282828009B
:101A08004428100000000804540800007C44545482
:101A18005C007C2424247C007C5454546C007C445A
:101A2800444444007C44444438007C5454544400A6
:101A38007C14141404007C44445474007C1010106A
:101A48007C0044447C444400604040447C007C105A
:101A5800102844007C40404040007C0810087C006E
:101A68007C0810207C003844444438007C1414144A
:101A780008003C2464243C007C14141468005C5462
:101A88005454740004047C0404007C4040407C00EE
:101A98000C3040300C003C4030403C0044281028BA
:101AA80044000C1060100C004464544C44007C4406
:101AB800000000000C1060000000447C00000000E2
:101AC800000100010000404040404040000100008B
:101AD80000007C2424247C007C5454546C007C44F6
:101AE800444444007C44444438007C5454544400E6
:101AF8007C14141404007C44445474007C101010AA
:101B08007C0044447C444400604040447C007C1099
:101B1800102844007C40404040007C0810087C00AD
:101B28007C0810207C003844444438007C14141489
:101B380008003C2464243C007C14141468005C54A1
:101B48005454740004047C0404007C4040407C002D
:101B58000C3040300C003C4030403C0044281028F9
:101B680044000C1060100C004464544C4400107C79
:101B7800440000006C0000000000447C10000000DD
:101B88000201020100000000000000000000000047
:0C1B980000000000010203040607080919
:041BA4003101000803
:041BA8000D01000823
:0C1BAC00010000001000000000A24A042C
:040000050800187D5A
:00000001FF
